{
  "$schema": "../rpc-schema-draft.json",
  "type": "object",
  "additionalProperties": false,
  "rpc": "listtransactions",
  "title": "Command to get the list of transactions that was stored in the wallet.",
  "description": [
    "The **listtransactions** command returns transactions tracked in the wallet. This includes deposits, withdrawals and transactions related to channels. A transaction may have multiple types, e.g., a transaction may both be a close and a deposit if it closes the channel and returns funds to the wallet."
  ],
  "categories": [
    "readonly"
  ],
  "request": {
    "required": [],
    "properties": {}
  },
  "response": {
    "required": [
      "transactions"
    ],
    "properties": {
      "transactions": {
        "type": "array",
        "items": {
          "type": "object",
          "additionalProperties": false,
          "required": [
            "hash",
            "rawtx",
            "blockheight",
            "txindex",
            "locktime",
            "version",
            "inputs",
            "outputs"
          ],
          "properties": {
            "hash": {
              "type": "txid",
              "description": [
                "The transaction id."
              ]
            },
            "rawtx": {
              "type": "hex",
              "description": [
                "The raw transaction."
              ]
            },
            "blockheight": {
              "type": "u32",
              "description": [
                "The block height of this tx."
              ]
            },
            "txindex": {
              "type": "u32",
              "description": [
                "The transaction number within the block."
              ]
            },
            "locktime": {
              "type": "u32",
              "description": [
                "The nLocktime for this tx."
              ]
            },
            "version": {
              "type": "u32",
              "description": [
                "The nVersion for this tx."
              ]
            },
            "inputs": {
              "type": "array",
              "description": [
                "Each input, in order."
              ],
              "items": {
                "type": "object",
                "additionalProperties": false,
                "required": [
                  "txid",
                  "index",
                  "sequence"
                ],
                "properties": {
                  "txid": {
                    "type": "txid",
                    "description": [
                      "The transaction id spent."
                    ]
                  },
                  "index": {
                    "type": "u32",
                    "description": [
                      "The output spent."
                    ]
                  },
                  "sequence": {
                    "type": "u32",
                    "description": [
                      "The nSequence value."
                    ]
                  }
                }
              }
            },
            "outputs": {
              "type": "array",
              "description": [
                "Each output, in order."
              ],
              "items": {
                "type": "object",
                "additionalProperties": false,
                "required": [
                  "index",
                  "amount_msat",
                  "scriptPubKey"
                ],
                "properties": {
                  "index": {
                    "type": "u32",
                    "description": [
                      "The 0-based output number."
                    ]
                  },
                  "amount_msat": {
                    "type": "msat",
                    "description": [
                      "The amount of the output."
                    ]
                  },
                  "scriptPubKey": {
                    "type": "hex",
                    "description": [
                      "The scriptPubKey."
                    ]
                  }
                }
              }
            }
          }
        }
      }
    }
  },
  "errors": [
    "On failure, one of the following error codes may be returned:",
    "",
    "- -32602: Error in given parameters."
  ],
  "author": [
    "Vincenzo Palazzo <<vincenzo.palazzo@protonmail.com>> wrote the initial version of this man page,",
    "but many others did the hard work of actually implementing this rpc command."
  ],
  "see_also": [
    "lightning-newaddr(7)",
    "lightning-listfunds(7)"
  ],
  "resources": [
    "Main web site: <https://github.com/ElementsProject/lightning>"
  ],
  "examples": [
    {
      "request": {
        "id": "example:listtransactions#1",
        "method": "listtransactions",
        "params": {}
      },
      "response": {
        "transactions": [
          {
            "hash": "16ee9d359e749ed49312e04299cf9eacc4b3b987157a1b8f4fe514a752bfdad4",
            "rawtx": "020000000001016543e5c16b46292f465495bc7eb80d94e7b11fe27c9be6f80736e6c3cec326050000000000fdffffff0271c4d4280100000017a9144ee23e8d0bb7384e4ba1cd2725d12eff71f06c2887002d31010000000017a914655728f36cfe36d01aa50d3236704469f84a55408702473044022071a7c5903186d88529195a0c5d53e10f17a3e3748ebb5a0d4dea0f278df0b667022060e16fb9bdbe44420db44c43ced4afcb7b62325aeee417842f85614ef684ef5f01210322e7c5277a705ee3a2ca45e00a98048ba2fe3ddc0a9dba2026c39cb5c8a07e4d65000000",
            "blockheight": 102,
            "txindex": 1,
            "locktime": 101,
            "version": 2,
            "inputs": [
              {
                "txid": "txid313131313131313131313131313131313131313131313131313131313131",
                "index": 0,
                "sequence": 4294967293
              }
            ],
            "outputs": [
              {
                "index": 0,
                "amount_msat": 4979999857000,
                "scriptPubKey": "a9144ee23e8d0bb7384e4ba1cd2725d12eff71f06c2887"
              },
              {
                "index": 1,
                "amount_msat": 20000000000,
                "scriptPubKey": "a914655728f36cfe36d01aa50d3236704469f84a554087"
              }
            ]
          },
          {
            "hash": "txid282828282828282828282828282828282828282828282828282828282828",
            "rawtx": "02000000000101d4dabf52a714e54f8f1b7a1587b9b3c4ac9ecf9942e01293d49e749e359dee160100000017160014d6b969d36dffdad9869193f663ee480dfdc73488fdffffff0135143101000000002251206c27e1956acfa61e68292c80908880e813450f754132e8a2ac471a86bf1326b50247304402204a09596718ad2c55951c292a862ec8dcf9d647cbd54daa642291bac1686819790220522922737b218e31b8640b3273386e928a0ca4dac42f60940320da3e775aefcc012102b9c0c6844e12a531c968e55c55078ec16d9bf76be9290fd87d1cca72b4839a1766000000",
            "blockheight": 103,
            "txindex": 1,
            "locktime": 102,
            "version": 2,
            "inputs": [
              {
                "txid": "txid323232323232323232323232323232323232323232323232323232323232",
                "index": 1,
                "sequence": 4294967293
              }
            ],
            "outputs": [
              {
                "index": 0,
                "amount_msat": 19993653000,
                "scriptPubKey": "51206c27e1956acfa61e68292c80908880e813450f754132e8a2ac471a86bf1326b5"
              }
            ]
          },
          {
            "hash": "9b5d1fbd171343df62efe956f746d95b3898bece1cd406d1a45256d43cc8f718",
            "rawtx": "02000000000101d4dabf52a714e54f8f1b7a1587b9b3c4ac9ecf9942e01293d49e749e359dee160000000017160014487684b78fb38fa8c42a3407376a6126676f0813fdffffff0200c2eb0b00000000160014661c23b790dd3491373af0b1d8bed0877d5cde22cd01e91c01000000160014dfbd132cc560fa8f02d7d1a1c89f27b8a4c11c530247304402207191c99214c11c7235d8594775bb888c23702737fa0d5fe22d897ab6606f5ace0220161c75b9299a3a56238542b8c42c10a13f00675f59164388b1a7ce543a8058a701210319fd75cbd76308af18b7604acf4ac9efc6a5b06cac979363d529121439cfb6b166000000",
            "blockheight": 103,
            "txindex": 2,
            "locktime": 102,
            "version": 2,
            "inputs": [
              {
                "txid": "txid333333333333333333333333333333333333333333333333333333333333",
                "index": 0,
                "sequence": 4294967293
              }
            ],
            "outputs": [
              {
                "index": 0,
                "amount_msat": 200000000000,
                "scriptPubKey": "0014661c23b790dd3491373af0b1d8bed0877d5cde22"
              },
              {
                "index": 1,
                "amount_msat": 4779999693000,
                "scriptPubKey": "0014dfbd132cc560fa8f02d7d1a1c89f27b8a4c11c53"
              }
            ]
          },
          {
            "hash": "txid292929292929292929292929292929292929292929292929292929292929",
            "rawtx": "020000000001015edeee8493af425df68425d8524dc8c5dad005a69ff06f347dacfa1da435cd150100000000fdffffff028c721bed00000000160014ade32970fc7714224415743ac4209e56bdc3104280841e00000000001600149fb67bfcefee6cb7db4c7e55d9c6bfd749e31d1e02473044022041fdb14d4de84b68ae9f3e395009959bef10c82ede5844298c5a180cbd3cc6490220402fd6107a35e5799df096b582ee57e9657f0b233e9473bd49e50cf108d24045012102b624cbe81b634ebb89a70085a60f5b30bf919e59a42fb647a7d7a80ad417b22145000000",
            "blockheight": 108,
            "txindex": 1,
            "locktime": 69,
            "version": 2,
            "inputs": [
              {
                "txid": "txid343434343434343434343434343434343434343434343434343434343434",
                "index": 1,
                "sequence": 4294967293
              }
            ],
            "outputs": [
              {
                "index": 0,
                "amount_msat": 3977998988000,
                "scriptPubKey": "0014ade32970fc7714224415743ac4209e56bdc31042"
              },
              {
                "index": 1,
                "amount_msat": 2000000000,
                "scriptPubKey": "00149fb67bfcefee6cb7db4c7e55d9c6bfd749e31d1e"
              }
            ]
          },
          {
            "hash": "txid303030303030303030303030303030303030303030303030303030303030",
            "rawtx": "tx02000000000101txtxtx12000120001200012000120001200012000120001200012000120001200012000120001200012000120001200012000120001200012000120001200012000120001200012000120001200012000120001200012000120001200012000120001200012000120001200012000120001200012000120001200012000120001200012000120001200012000120001200012000120001200012000120001200012000120001200012000120001200012000120001200012000120001200012000120001200012000120001200012000120001200012000120001200012000120001200012000120001200012000120001200012000120001200012000",
            "blockheight": 109,
            "txindex": 1,
            "locktime": 108,
            "version": 2,
            "inputs": [
              {
                "txid": "txid353535353535353535353535353535353535353535353535353535353535",
                "index": 0,
                "sequence": 4294967293
              }
            ],
            "outputs": [
              {
                "index": 0,
                "amount_msat": 1000000000,
                "scriptPubKey": "00205b8cd3b914cf67cdd8fa6273c930353dd36476734fbd962102c2df53b90880cd"
              },
              {
                "index": 1,
                "amount_msat": 198995073000,
                "scriptPubKey": "512035f1184f6b470c9df347da62c4b28e7ec9ee10b220bac3accd22209def0036ea"
              }
            ]
          }
        ]
      }
    }
  ]
}
