{
  "$schema": "../rpc-schema-draft.json",
  "type": "object",
  "rpc": "listtransactions",
  "title": "Command to get the list of transactions that was stored in the wallet.",
  "description": [
    "The **listtransactions** command returns transactions tracked in the wallet. This includes deposits, withdrawals and transactions related to channels. A transaction may have multiple types, e.g., a transaction may both be a close and a deposit if it closes the channel and returns funds to the wallet."
  ],
  "categories": [
    "readonly"
  ],
  "request": {
    "required": [],
    "additionalProperties": false,
    "properties": {}
  },
  "response": {
    "required": [
      "transactions"
    ],
    "additionalProperties": false,
    "properties": {
      "transactions": {
        "type": "array",
        "items": {
          "type": "object",
          "additionalProperties": false,
          "required": [
            "hash",
            "rawtx",
            "blockheight",
            "txindex",
            "locktime",
            "version",
            "inputs",
            "outputs"
          ],
          "properties": {
            "hash": {
              "type": "txid",
              "description": [
                "The transaction id."
              ]
            },
            "rawtx": {
              "type": "hex",
              "description": [
                "The raw transaction."
              ]
            },
            "blockheight": {
              "type": "u32",
              "description": [
                "The block height of this tx."
              ]
            },
            "txindex": {
              "type": "u32",
              "description": [
                "The transaction number within the block."
              ]
            },
            "locktime": {
              "type": "u32",
              "description": [
                "The nLocktime for this tx."
              ]
            },
            "version": {
              "type": "u32",
              "description": [
                "The nVersion for this tx."
              ]
            },
            "inputs": {
              "type": "array",
              "description": [
                "Each input, in order."
              ],
              "items": {
                "type": "object",
                "additionalProperties": false,
                "required": [
                  "txid",
                  "index",
                  "sequence"
                ],
                "properties": {
                  "txid": {
                    "type": "txid",
                    "description": [
                      "The transaction id spent."
                    ]
                  },
                  "index": {
                    "type": "u32",
                    "description": [
                      "The output spent."
                    ]
                  },
                  "sequence": {
                    "type": "u32",
                    "description": [
                      "The nSequence value."
                    ]
                  }
                }
              }
            },
            "outputs": {
              "type": "array",
              "description": [
                "Each output, in order."
              ],
              "items": {
                "type": "object",
                "additionalProperties": false,
                "required": [
                  "index",
                  "amount_msat",
                  "scriptPubKey"
                ],
                "properties": {
                  "index": {
                    "type": "u32",
                    "description": [
                      "The 0-based output number."
                    ]
                  },
                  "amount_msat": {
                    "type": "msat",
                    "description": [
                      "The amount of the output."
                    ]
                  },
                  "scriptPubKey": {
                    "type": "hex",
                    "description": [
                      "The scriptPubKey."
                    ]
                  }
                }
              }
            }
          }
        }
      }
    }
  },
  "errors": [
    "On failure, one of the following error codes may be returned:",
    "",
    "- -32602: Error in given parameters."
  ],
  "author": [
    "Vincenzo Palazzo <<vincenzo.palazzo@protonmail.com>> wrote the initial version of this man page,",
    "but many others did the hard work of actually implementing this rpc command."
  ],
  "see_also": [
    "lightning-newaddr(7)",
    "lightning-listfunds(7)"
  ],
  "resources": [
    "Main web site: <https://github.com/ElementsProject/lightning>"
  ],
  "examples": [
    {
      "request": {
        "id": "example:listtransactions#1",
        "method": "listtransactions",
        "params": {}
      },
      "response": {
        "transactions": [
          {
            "hash": "cb847df46f5e3ae4df631b2eca529264f0551c08497a23a8b36eab6a43752a19",
            "rawtx": "02000000000101f24a23ab5e7a9a3301a77294bd78b17c1f99ae8a46f91c7784170325735c87a70000000000fce87280044a0100000000000022002021576c2f5f13ba292fdb27447b38f1a583a579f26d3f4de69949f399a68269e34a0100000000000022002084e64aa53fb1193cdd99b7892f2d2f1f1a472f2b1bb1b85c447beba739003b2ea00f0000000000002200208f5cc510822867e8c786438caacf26a796f0561a147b4cb4950e4ae5fd0f5b6a0a1d0f00000000002200200fc54c870d234c36914a970b066e35be3f70af615d521189922794127e5eda8f0400473044022065d513e52ad62ae187985ffdc063591ca4fd3122b64f93f8173804d71a4c4bf802200e2f6abd1e958930f5535af6d193ad50f48632e832952dde93d25b64d9e4a9ae01473044022016be9e3950d45956afea61824dc637dff6708789859ca8ab62d475849e8ea3af02204beec8cc69f1238866e0768770b64fe381b53badc64b8a6fde2cca49e0b1baf10147522102c4c58e0dd892bdc984a69d87a39e33a837926d8886282e27d0a6cdfab5a563742103ebc3fd1aeca86f47406b5c43daf43ce7337d0d59923891ad4e276e168c2bc11452ae1a77ae20",
            "blockheight": 0,
            "txindex": 0,
            "locktime": 548304666,
            "version": 2,
            "inputs": [
              {
                "txid": "a7875c7325031784771cf9468aae991f7cb178bd9472a701339a7a5eab234af2",
                "index": 0,
                "sequence": 2155014396
              }
            ],
            "outputs": [
              {
                "index": 0,
                "amount_msat": 330000,
                "scriptPubKey": "002021576c2f5f13ba292fdb27447b38f1a583a579f26d3f4de69949f399a68269e3"
              },
              {
                "index": 1,
                "amount_msat": 330000,
                "scriptPubKey": "002084e64aa53fb1193cdd99b7892f2d2f1f1a472f2b1bb1b85c447beba739003b2e"
              },
              {
                "index": 2,
                "amount_msat": 4000000,
                "scriptPubKey": "00208f5cc510822867e8c786438caacf26a796f0561a147b4cb4950e4ae5fd0f5b6a"
              },
              {
                "index": 3,
                "amount_msat": 990474000,
                "scriptPubKey": "00200fc54c870d234c36914a970b066e35be3f70af615d521189922794127e5eda8f"
              }
            ]
          },
          {
            "hash": "0c609c5643e2f316985989417c48044311cf2c1fb2113a03af7d7d51b4874ac5",
            "rawtx": "02000000000101b3d820c11ae3a495b807cdcbf591f9a382351f50e61eb3ddcbb0c3a9b66f12890000000000fdffffff02b37c110501000000160014d67d8942d0b25380051198e292a12c48369c94ca00c2eb0b00000000160014d0eac62fdcee2d1881259be9cda4c43de9050db802473044022042141044c5fa69877c5a6d641cd96693828c77b8593fbba4df3008c56c54c3c502202e743899c8469993e28011de683f68f2f66c64b23f1ac62be7167563f762f8a40121031552bdf1173629284565431fb75296ec15c49649f97bb418ce3f509601b9b77469000000",
            "blockheight": 106,
            "txindex": 1,
            "locktime": 105,
            "version": 2,
            "inputs": [
              {
                "txid": "89126fb6a9c3b0cbddb31ee6501f3582a3f991f5cbcd07b895a4e31ac120d8b3",
                "index": 0,
                "sequence": 4294967293
              }
            ],
            "outputs": [
              {
                "index": 0,
                "amount_msat": 4379999411000,
                "scriptPubKey": "0014d67d8942d0b25380051198e292a12c48369c94ca"
              },
              {
                "index": 1,
                "amount_msat": 200000000000,
                "scriptPubKey": "0014d0eac62fdcee2d1881259be9cda4c43de9050db8"
              }
            ]
          },
          {
            "hash": "7cce7550c4b37924bb74fd4baf8f1946a4b14c050c42f2479b04fede08652aa9",
            "rawtx": "02000000000101b3d820c11ae3a495b807cdcbf591f9a382351f50e61eb3ddcbb0c3a9b66f12890100000000fdffffff0240420f00000000002200208698658a01efb001e1cc4df6a8b6f3adb461fa3e679385fdaae400bd73996b32816cdc0b000000002251208a73bb281433f2b5db5461c6778aa2afd28e011de6bd04799a5991662c61d7a80247304402204ae8e90efd38fe67b7dacd7b673c5de869a802feab60b17ce55c91c5bdffcfa60220100e9a1ee2e0f0a0e157feb12ee4e5e2b9ca4c78384097b085d476722f2dd9e101210207ec2b35534712d86ae030dd9bfaec08e2ddea1ec1cecffb9725ed7acb12ab6633000000",
            "blockheight": 112,
            "txindex": 1,
            "locktime": 51,
            "version": 2,
            "inputs": [
              {
                "txid": "89126fb6a9c3b0cbddb31ee6501f3582a3f991f5cbcd07b895a4e31ac120d8b3",
                "index": 1,
                "sequence": 4294967293
              }
            ],
            "outputs": [
              {
                "index": 0,
                "amount_msat": 1000000000,
                "scriptPubKey": "00208698658a01efb001e1cc4df6a8b6f3adb461fa3e679385fdaae400bd73996b32"
              },
              {
                "index": 1,
                "amount_msat": 198995073000,
                "scriptPubKey": "51208a73bb281433f2b5db5461c6778aa2afd28e011de6bd04799a5991662c61d7a8"
              }
            ]
          },
          {
            "hash": "c3f4a0f787b5ea11505afaba3e9599d6135943d0f562df3d6a7d3e7f372e2067",
            "rawtx": "02000000000101ce5a530f60155add2fa38a51332c2823dec1e10eb16f77e68da912d03fb04dd80100000000fdffffff0280841e0000000000160014774b1c651a1b409213057783547e2bd37a7173127268deec00000000160014dc1e0ee8ce8e59d06ff533cc79b1e3809b4eba99024730440220483a8cc01437562b2dc7e83397e145f427fcbdbe7afb6d83c63ad3c8d18cc31d0220502b2d3f36a6b6cc42bb1714c8907b1b9c9a80788784599c33d19242e29061330121022facafa438adcdc64818ac87168a8ff6cc0c1f986475f3edac935f037bcc962b15000000",
            "blockheight": 113,
            "txindex": 1,
            "locktime": 21,
            "version": 2,
            "inputs": [
              {
                "txid": "d84db03fd012a98de6776fb10ee1c1de23282c33518aa32fdd5a15600f535ace",
                "index": 1,
                "sequence": 4294967293
              }
            ],
            "outputs": [
              {
                "index": 0,
                "amount_msat": 2000000000,
                "scriptPubKey": "0014774b1c651a1b409213057783547e2bd37a717312"
              },
              {
                "index": 1,
                "amount_msat": 3973998706000,
                "scriptPubKey": "0014dc1e0ee8ce8e59d06ff533cc79b1e3809b4eba99"
              }
            ]
          },
          {
            "hash": "efa52a006f5909ed9cb8a098f2dec8ad7146a1384b6eaaf2fae7aac05077f7b6",
            "rawtx": "0200000000010167202e377f3e7d6a3ddf62f5d0435913d699953ebafa5a5011eab587f7a0f4c30000000000fdffffff0240420f00000000002200205f743123f9584a76058bac1142ec2bc6c60b4b2af1d3145e74418d41ae51009e012f0f0000000000225120974c19d5ed96a62a1bd10ad187fee5c2e3146f772228c5ae7a42b36e74cf24cf024730440220707db46964e57ba4767951d6f03491f75468fd263dc84868d02352d74b91b4f102200a06e7213acde73c8a89751a1d915cfd72a849c850093b53c0415759144740cd012103f1f9d3a06cf2ae9b87dc178b5f3717b6c9b56e539189f11dc0d9ad1b227cc97f71000000",
            "blockheight": 114,
            "txindex": 1,
            "locktime": 113,
            "version": 2,
            "inputs": [
              {
                "txid": "c3f4a0f787b5ea11505afaba3e9599d6135943d0f562df3d6a7d3e7f372e2067",
                "index": 0,
                "sequence": 4294967293
              }
            ],
            "outputs": [
              {
                "index": 0,
                "amount_msat": 1000000000,
                "scriptPubKey": "00205f743123f9584a76058bac1142ec2bc6c60b4b2af1d3145e74418d41ae51009e"
              },
              {
                "index": 1,
                "amount_msat": 995073000,
                "scriptPubKey": "5120974c19d5ed96a62a1bd10ad187fee5c2e3146f772228c5ae7a42b36e74cf24cf"
              }
            ]
          },
          {
            "hash": "1aa6d7b0bb6c5d1dac62724caa4e26dc37ed8af5e747c836746987d28603fed2",
            "rawtx": "02000000000101b6f77750c0aae7faf2aa6e4b38a14671adc8def298a0b89ced09596f002aa5ef0000000000ffffffff026b6f070000000000160014730274d976305fe63d212c880cf89fd0f08272873ac80700000000002251202bdd81f95d64ed2cc37d2eae725de428c91bff072d7503d87446970eedc630300400473044022008dec4948db1c9e4db4dcf8c223f554117e48c6aa0aac471de67c03163a82e4a0220018bdb9889230e0048a378efad73d3bec83c330baa727323d95ca86fe36301b701473044022022cec9df9ece54e1ca89888bdc19ed84e5202a93070d05aa9b3236f9990b440d0220376f7fd6edb49ad13596cdfd51d929a92d45bc88da3f16ed0777014a28025a2801475221021c29746e4136ddff456483df3980c2d0d5f31c93ef5ded564f7294a10d7414aa2103c47b1b2afcfd68c7b86c0976adb9a4f0835bc78242fced745d78433497a867d652ae00000000",
            "blockheight": 122,
            "txindex": 1,
            "locktime": 0,
            "version": 2,
            "inputs": [
              {
                "txid": "efa52a006f5909ed9cb8a098f2dec8ad7146a1384b6eaaf2fae7aac05077f7b6",
                "index": 0,
                "sequence": 4294967295
              }
            ],
            "outputs": [
              {
                "index": 0,
                "amount_msat": 487275000,
                "scriptPubKey": "0014730274d976305fe63d212c880cf89fd0f0827287"
              },
              {
                "index": 1,
                "amount_msat": 510010000,
                "scriptPubKey": "51202bdd81f95d64ed2cc37d2eae725de428c91bff072d7503d87446970eedc63030"
              }
            ]
          },
          {
            "hash": "40b4acd3759ac69b5160488d73a5890a46bf4f013381e52e9171ee038b3c96d6",
            "rawtx": "02000000000101a92a6508defe049b47f2420c054cb1a446198faf4bfd74bb2479b3c45075ce7c0000000000ffffffff02026e07000000000022512085d72025e78fd08bb61119f0987ab0041f50561ada6e130c645343db8c44c2afeec8070000000000225120a7583f0c421663b8ca76fa579018b40682ef8553d73fd061cd8f216ecdced6a30400473044022064d1a5480d76bc71d44ee440a47ec30e7433812292ca8d4876e5e59cd2950e4802201ece394b4bcbf6ba3f21152236822cfb2eeed8e5897d3bf3499e9d7d1a5d092e01473044022068cd05fe53fa71118b643e5340ea3cd169a3ca655c64c0b30f78d720d79a957502200f14d30de4251cf016a3db3475fe5472772335b76dfc268dc173e6541026b1830147522102d595ae92b3544c3250fb772f214ad8d4c51425033740a5bcc357190add6d7e7a2102d6063d022691b2490ab454dee73a57c6ff5d308352b461ece69f3c284f2c241252ae00000000",
            "blockheight": 122,
            "txindex": 2,
            "locktime": 0,
            "version": 2,
            "inputs": [
              {
                "txid": "7cce7550c4b37924bb74fd4baf8f1946a4b14c050c42f2479b04fede08652aa9",
                "index": 0,
                "sequence": 4294967295
              }
            ],
            "outputs": [
              {
                "index": 0,
                "amount_msat": 486914000,
                "scriptPubKey": "512085d72025e78fd08bb61119f0987ab0041f50561ada6e130c645343db8c44c2af"
              },
              {
                "index": 1,
                "amount_msat": 510190000,
                "scriptPubKey": "5120a7583f0c421663b8ca76fa579018b40682ef8553d73fd061cd8f216ecdced6a3"
              }
            ]
          },
          {
            "hash": "148a366c9a72e40af01daca6acc24e0a5648d0efb7e01f4708f23412d9deba69",
            "rawtx": "0200000000010255310c6239b1c691cda8c054f3933467fb75153dddbd83dabec5d621990ddc920000000000fdffffffa7330551ea1fb2cc2d6ce491391f6830228b4bf5f2a616ab0a372002027e93ed0100000000fdffffff0245571e0000000000225120fdab7c01fae70c08e0b1f9acacca110a53121e75dc54a25e7542416f342aeaf740420f00000000002200209655e2a7330cd86dc69f8ed1845af5580dd06b15a794034c9571e53d5639b397014051b8117b0f4726cb33d05a6289f25addc41f5cf4a572b1a00aa494e88c3d9771729e9473eb8bb3679eac5a13964260269e317924cbf0e55c5aba600dbbc4af1002473044022049960f9cc0d1c77c8b85614adb8ed91b2a0a55a3e4bdac12a3de90880485f5e2022012e7ccc5f87ca3e0f485b2b16a95cc026079b18358dcb20fb0cd44348105751a01210330a75acaed258be6bc02da9fab058abbe0e770caceb7c6496eaaea7014c3d39b7b000000",
            "blockheight": 124,
            "txindex": 1,
            "locktime": 123,
            "version": 2,
            "inputs": [
              {
                "txid": "92dc0d9921d6c5beda83bddd3d1575fb673493f354c0a8cd91c6b139620c3155",
                "index": 0,
                "sequence": 4294967293
              },
              {
                "txid": "ed937e020220370aab16a6f2f54b8b2230681f3991e46c2dccb21fea510533a7",
                "index": 1,
                "sequence": 4294967293
              }
            ],
            "outputs": [
              {
                "index": 0,
                "amount_msat": 1988421000,
                "scriptPubKey": "5120fdab7c01fae70c08e0b1f9acacca110a53121e75dc54a25e7542416f342aeaf7"
              },
              {
                "index": 1,
                "amount_msat": 1000000000,
                "scriptPubKey": "00209655e2a7330cd86dc69f8ed1845af5580dd06b15a794034c9571e53d5639b397"
              }
            ]
          },
          {
            "hash": "e72c5b057eb2944ade8a57c7d1143cc5eea12f0905287ce40c2716ed7032bd29",
            "rawtx": "02000000000101a7330551ea1fb2cc2d6ce491391f6830228b4bf5f2a616ab0a372002027e93ed0000000000fdffffff0280841e000000000016001449acd7d82366c662bc8fef84bd3900b09bafbba54bd982ec0000000016001423c5939000b149132489269b028c1a596d96af480247304402204b0db0024b5141333d9e95410d91fcd3f8f3e60a2b26a7572694b0c094bae64e022062dad17af68f819b3463f57e75b3e93d257ed73b66f8045eed8d3bfd7252908501210387ee92224b3c95d3a3af78c32cec2b07b1c250e3bdb80a2e80dadc02e684040c7c000000",
            "blockheight": 125,
            "txindex": 1,
            "locktime": 124,
            "version": 2,
            "inputs": [
              {
                "txid": "ed937e020220370aab16a6f2f54b8b2230681f3991e46c2dccb21fea510533a7",
                "index": 0,
                "sequence": 4294967293
              }
            ],
            "outputs": [
              {
                "index": 0,
                "amount_msat": 2000000000,
                "scriptPubKey": "001449acd7d82366c662bc8fef84bd3900b09bafbba5"
              },
              {
                "index": 1,
                "amount_msat": 3967998283000,
                "scriptPubKey": "001423c5939000b149132489269b028c1a596d96af48"
              }
            ]
          },
          {
            "hash": "a7875c7325031784771cf9468aae991f7cb178bd9472a701339a7a5eab234af2",
            "rawtx": "0200000000010129bd3270ed16270ce47c2805092fa1eec53c14d1c7578ade4a94b27e055b2ce70000000000fdffffff0240420f0000000000220020dd2b22d7f86c0cb8edca4d979b316aa5a8a390a37440b3f387edfa6e3efb630d012f0f00000000002251207b8ca7b7f827d8f94a2846c4e5d84fbae1a5b7453ff03ca1859f25888325b80a02473044022038b791a95551665f80a79e75cd2b53035913a1e3314c8135d2e1e2d60ef253df02202a80e65020cd2c160830a8d93cde5fc9ec92299104df83a59c41420370daf20001210235953f2aa25835f70cc1da3418d935b88a9f95a134dd86636bf018f532d282fe7d000000",
            "blockheight": 126,
            "txindex": 1,
            "locktime": 125,
            "version": 2,
            "inputs": [
              {
                "txid": "e72c5b057eb2944ade8a57c7d1143cc5eea12f0905287ce40c2716ed7032bd29",
                "index": 0,
                "sequence": 4294967293
              }
            ],
            "outputs": [
              {
                "index": 0,
                "amount_msat": 1000000000,
                "scriptPubKey": "0020dd2b22d7f86c0cb8edca4d979b316aa5a8a390a37440b3f387edfa6e3efb630d"
              },
              {
                "index": 1,
                "amount_msat": 995073000,
                "scriptPubKey": "51207b8ca7b7f827d8f94a2846c4e5d84fbae1a5b7453ff03ca1859f25888325b80a"
              }
            ]
          },
          {
            "hash": "59d7273c7dde3b2786f7325da08a303779ee718443aaa25d03db19c9e909591b",
            "rawtx": "0200000000010190ee63cdc0e3f2b01c954abef709af77c0d966ca3f45b6b39ab9cfb6546c7a790100000000fdffffff08e803000000000000160014a43b821a9790f880e113a395b717a0f354b9d9c6e687150000000000225120327b99fbacbcc3bbcf9489bf7f3dac2642d933685754f558586afbacd17f9c26e8030000000000002251202f843ba0c8de9d0c41a63a25d4cab22032be4fabf24931dab82214316be218cae8030000000000002251200978ea47f31ad6561d96ceee14e85192726536c4e1e59d09f217f3b5762b0630e80300000000000016001407905c6189c1ae8aff12566b03f35ff516d17e84e803000000000000160014d1dc90a7bb3af91ed69e933dc38f555b580fad09e8030000000000001600146a1845bb0ea1f8efa63f00f325641db7350dcd5be803000000000000160014dfadaae18d57e4ef50e15b863d9e648bf9af67b10140eeb15b713763a95f40db82138b6f02a8ae8e49aad37ab3647d943a27713069f87376087de9ba49b7a477581f02cf4b4de25a468ee611b7a1ca2e71c3b1e179748c000000",
            "blockheight": 141,
            "txindex": 1,
            "locktime": 140,
            "version": 2,
            "inputs": [
              {
                "txid": "797a6c54b6cfb99ab3b6453fca66d9c077af09f7be4a951cb0f2e3c0cd63ee90",
                "index": 1,
                "sequence": 4294967293
              }
            ],
            "outputs": [
              {
                "index": 0,
                "amount_msat": 1000000,
                "scriptPubKey": "0014a43b821a9790f880e113a395b717a0f354b9d9c6"
              },
              {
                "index": 1,
                "amount_msat": 1411046000,
                "scriptPubKey": "5120327b99fbacbcc3bbcf9489bf7f3dac2642d933685754f558586afbacd17f9c26"
              },
              {
                "index": 2,
                "amount_msat": 1000000,
                "scriptPubKey": "51202f843ba0c8de9d0c41a63a25d4cab22032be4fabf24931dab82214316be218ca"
              },
              {
                "index": 3,
                "amount_msat": 1000000,
                "scriptPubKey": "51200978ea47f31ad6561d96ceee14e85192726536c4e1e59d09f217f3b5762b0630"
              },
              {
                "index": 4,
                "amount_msat": 1000000,
                "scriptPubKey": "001407905c6189c1ae8aff12566b03f35ff516d17e84"
              },
              {
                "index": 5,
                "amount_msat": 1000000,
                "scriptPubKey": "0014d1dc90a7bb3af91ed69e933dc38f555b580fad09"
              },
              {
                "index": 6,
                "amount_msat": 1000000,
                "scriptPubKey": "00146a1845bb0ea1f8efa63f00f325641db7350dcd5b"
              },
              {
                "index": 7,
                "amount_msat": 1000000,
                "scriptPubKey": "0014dfadaae18d57e4ef50e15b863d9e648bf9af67b1"
              }
            ]
          },
          {
            "hash": "f9e2ca6abf9450803ef6a1a75964277dd39b2f35f77acffc3a5978437b421aec",
            "rawtx": "02000000000102b6f77750c0aae7faf2aa6e4b38a14671adc8def298a0b89ced09596f002aa5ef0100000000fdffffffc54a87b4517d7daf033a11b21f2ccf114304487c4189599816f3e243569c600c0100000000fdffffff0240420f0000000000220020b41521751a8eb257315f73a531763071cc39b7cece470f630fd5149fe7b7057ac594eb0b00000000225120a5410daebf4fc3cba618a840af497fbec4c3a084534f2b7b6a7d30bf35f8f5660140528e20b424e1ac7f2ae067093552f424dade1321ec396a7d382866be7bba9ba5a3faf375dc9b39d676d8adab67c30df596bca1412c3871bb9538fc00265c35bf02473044022003304f0d559771fe9d4b06dccecacbef7eaef5a97c7618b567de1ba53e7146ef02207f7138b9cd7fca8ea13498e6fed96b225873131c45b5c46e4e78c7fe45d5b3e9012102c8a8f25ed135cd671c88bd4e407bb3746678cfacbcf65ce89f8efc2aa0abe5359b000000",
            "blockheight": 156,
            "txindex": 1,
            "locktime": 155,
            "version": 2,
            "inputs": [
              {
                "txid": "efa52a006f5909ed9cb8a098f2dec8ad7146a1384b6eaaf2fae7aac05077f7b6",
                "index": 1,
                "sequence": 4294967293
              },
              {
                "txid": "0c609c5643e2f316985989417c48044311cf2c1fb2113a03af7d7d51b4874ac5",
                "index": 1,
                "sequence": 4294967293
              }
            ],
            "outputs": [
              {
                "index": 0,
                "amount_msat": 1000000000,
                "scriptPubKey": "0020b41521751a8eb257315f73a531763071cc39b7cece470f630fd5149fe7b7057a"
              },
              {
                "index": 1,
                "amount_msat": 199988421000,
                "scriptPubKey": "5120a5410daebf4fc3cba618a840af497fbec4c3a084534f2b7b6a7d30bf35f8f566"
              }
            ]
          },
          {
            "hash": "a5e7471ae03d284673ac3189164522587568bf47179e94a90cc0f043cff39bb5",
            "rawtx": "02000000000101ec1a427b4378593afccf7af7352f9bd37d276459a7a1f63e805094bf6acae2f90000000000ffffffff0176390f0000000000225120ebc29bf1526b5c18e4d14bdc0c2425e683d81ea0036c6834b98f5b04cdcb9d95040047304402206bb171775ea5334c9e604505eccd5010025e0bbfd65186e2e4f976a15dbce329022072d784a17bb46a4439b90a45d18f8cf2c28d80ff4388f4fe94740919cc6db2cf014730440220719782d4dba4b5024b5d35d7d590f84df275b1b921ec77e71cd98e55d677d702022042c25f4975c8eece9e5d0a820eed0a91a87fa063f9f584316c9838542a3f850001475221030c3fc0add8628ae8acc7befa2b833c455db3868be6de7add97b945a1e506f7fe21036c8bee77fa3632abc7a5df76cf029650eea826896024a70eaa64cac8a0131c1c52ae00000000",
            "blockheight": 156,
            "txindex": 5,
            "locktime": 0,
            "version": 2,
            "inputs": [
              {
                "txid": "f9e2ca6abf9450803ef6a1a75964277dd39b2f35f77acffc3a5978437b421aec",
                "index": 0,
                "sequence": 4294967295
              }
            ],
            "outputs": [
              {
                "index": 0,
                "amount_msat": 997750000,
                "scriptPubKey": "5120ebc29bf1526b5c18e4d14bdc0c2425e683d81ea0036c6834b98f5b04cdcb9d95"
              }
            ]
          },
          {
            "hash": "34e8ce026401c205cf74556beb2c11b9d9243fd4d74902127e739c11d865021b",
            "rawtx": "020000000001080ca195cdd7b29ead524961e05456441fa5e2c97c8262739ecdb6d2228b29353b0000000000fdffffff0ca195cdd7b29ead524961e05456441fa5e2c97c8262739ecdb6d2228b29353b0200000000fdffffff1b5909e9c919db035da2aa438471ee7937308aa05d32f786273bde7d3c27d7590000000000fdffffff1b5909e9c919db035da2aa438471ee7937308aa05d32f786273bde7d3c27d7590200000000fdffffff1b5909e9c919db035da2aa438471ee7937308aa05d32f786273bde7d3c27d7590700000000fdffffff9a8c6de235929d0b3850ec06560bf60d252718a1aadfe8e0718218af4878d1790100000000fdffffffb17766dac493e0b215e2255ae236477dd453cad94560d7f418face046fd6c3f80100000000fdffffffd7dbbaa1e20d2efed3c4241e554bd38be7b87b97dab1024d7880b72a862d584c0000000000fdffffff04204e000000000000220020369444aad3ac8c5452be625479f761587c42fbf66fecf644447daabc73c498223075000000000000220020d90c23ede7b77f89f4cae93da9326ba176d158a0b65faeaede5684c3c0f7c8392808440700000000220020f7bbe8f915381b4b9b1ca14cccbfd156eea19888550d01a5014f977e98c7fc8ca86100000000000022512018ece00b736f9ed77ed3a87426643c242223e3d6116a4cd6d90946f73de2ce71024730440220426dde8016515f8f897454cc37361219c5414f5e21cf91598047f12e3ad2fb8102202602d18876f20eb58a593b93e782b820cb68347d7beba839113a3a1d5b31a9400121028a599168d3c97debc71bc66e6270ecf054f300d888309ba05471a482175dd93002473044022069681451f9469ec6e7b4a62db78999e9ded9b2eb1682b0d90895f0fe67cedb8e02204d80c50638d043a9a8cdb34259774e7b9a474047c178b61ec4ded0ae186c1602012102272a9a25f1ffed52fab04a2cc88aeab135b53723856a8f1481c26417f88a922e0247304402204a2f0bb65bfafd85a6ffeaf9e75ec9dbe20f5d9bc50d8d98126942c00951aa2802203877c0326e64585cf4c767e57398eaff58a279542e9fd16a223d1f507d1bfdbb01210267f4468ffafe6f919ae871f57f09690467f494e83e0358dc64d10472f9072f4c01405cac3f8d65efa45a8e253c40cdfe97d8bc182e8ea04de2ecdd3fe488c6a9fe6508cf336ac742417a80ca805f069e088d4e8ad79575cf5d8dade454f69645ce6b0247304402206a5d75ef2bedb452594a97c52277b8532725cf5804b62669872d97c0cb499c03022011aff97f2c87ce8d99eda0f9a2f73f2668a82aea6e0acfe3b7b01893f05fc403012103d034f788f410c2ec2d89d161df3c3715f965248aa53eace463d10eca443eb1f20247304402203605a17cf717f57d125b999fac579064cb576c214a2204a4b8a106695607b4bd02201e41c14bcc19af1083d7a716a1aa33fe8b23b3b07eda3d30074146b4146834f60121029da47016812598be384212ce15793496c0ec2176a87e81c6432dae964f87c9870247304402201f4bb570df0095b4c5f1c35c5db787e9e2d289ae3cc9d0b75decbc7bb41e25c00220789c3d68621f25bf1fa30e72652591354c71aa8397fd1fa18442a0ffa037900f01210328cc8fc978e209f1695fa5b5655061db1aab2311b524176945bf1015ef2d4b89014024629ca4144d02f2f414e30644b1b7800d19d07ccf88e6c25cc3c5bd208f16c71c0deda1230d7df241f63a25b4e32a3036ff20168564e24b816693dda22b44d89c000000",
            "blockheight": 157,
            "txindex": 1,
            "locktime": 156,
            "version": 2,
            "inputs": [
              {
                "txid": "3b35298b22d2b6cd9e7362827cc9e2a51f445654e0614952ad9eb2d7cd95a10c",
                "index": 0,
                "sequence": 4294967293
              },
              {
                "txid": "3b35298b22d2b6cd9e7362827cc9e2a51f445654e0614952ad9eb2d7cd95a10c",
                "index": 2,
                "sequence": 4294967293
              },
              {
                "txid": "59d7273c7dde3b2786f7325da08a303779ee718443aaa25d03db19c9e909591b",
                "index": 0,
                "sequence": 4294967293
              },
              {
                "txid": "59d7273c7dde3b2786f7325da08a303779ee718443aaa25d03db19c9e909591b",
                "index": 2,
                "sequence": 4294967293
              },
              {
                "txid": "59d7273c7dde3b2786f7325da08a303779ee718443aaa25d03db19c9e909591b",
                "index": 7,
                "sequence": 4294967293
              },
              {
                "txid": "79d17848af188271e0e8dfaaa11827250df60b5606ec50380b9d9235e26d8c9a",
                "index": 1,
                "sequence": 4294967293
              },
              {
                "txid": "f8c3d66f04cefa18f4d76045d9ca53d47d4736e25a25e215b2e093c4da6677b1",
                "index": 1,
                "sequence": 4294967293
              },
              {
                "txid": "4c582d862ab780784d02b1da977bb8e78bd34b551e24c4d3fe2e0de2a1badbd7",
                "index": 0,
                "sequence": 4294967293
              }
            ],
            "outputs": [
              {
                "index": 0,
                "amount_msat": 20000000,
                "scriptPubKey": "0020369444aad3ac8c5452be625479f761587c42fbf66fecf644447daabc73c49822"
              },
              {
                "index": 1,
                "amount_msat": 30000000,
                "scriptPubKey": "0020d90c23ede7b77f89f4cae93da9326ba176d158a0b65faeaede5684c3c0f7c839"
              },
              {
                "index": 2,
                "amount_msat": 121899048000,
                "scriptPubKey": "0020f7bbe8f915381b4b9b1ca14cccbfd156eea19888550d01a5014f977e98c7fc8c"
              },
              {
                "index": 3,
                "amount_msat": 25000000,
                "scriptPubKey": "512018ece00b736f9ed77ed3a87426643c242223e3d6116a4cd6d90946f73de2ce71"
              }
            ]
          },
          {
            "hash": "bb23aa273032a5f997312034dcc92b09ba6ff343ab8b1fa76796710db0177b79",
            "rawtx": "020000000001011b0265d8119c737e120249d7d43f24d9b9112ceb6b5574cf05c2016402cee8340000000000ffffffff0156450000000000002251208de5a3aa566cb6dc9037206bc73530ce6d7d8ea2dd1c488aec5862cb8b8e860e04004730440220173a7f31ffc8ff5925c7b5248078acfcd484bb83ce0364ab18cca92dbe3be06202201516c8cb93e17d653c2bd66d02cb82635cb0ff12779c7062b5514f0ea65db3ea01473044022061f9b595763ffffd1c33e7fc3004fc8054031eedb45fe11941592d0f854dbfb5022043660a53fe00e56b93bd284e24337fff4501d06108b66cf07efd3cb13576dae30147522102f52c0210d5b05d38a0c01f316be27ad07fadb10015f497accfa78b7c3cdb5cb621038f2a5514a8fd540d306215ea47cded68140a4d1346f0b8dc35b4261701f7ec6952ae00000000",
            "blockheight": 157,
            "txindex": 4,
            "locktime": 0,
            "version": 2,
            "inputs": [
              {
                "txid": "34e8ce026401c205cf74556beb2c11b9d9243fd4d74902127e739c11d865021b",
                "index": 0,
                "sequence": 4294967295
              }
            ],
            "outputs": [
              {
                "index": 0,
                "amount_msat": 17750000,
                "scriptPubKey": "51208de5a3aa566cb6dc9037206bc73530ce6d7d8ea2dd1c488aec5862cb8b8e860e"
              }
            ]
          }
        ]
      }
    }
  ]
}
