{
  "$schema": "../rpc-schema-draft.json",
  "type": "object",
  "rpc": "listtransactions",
  "title": "Command to get the list of transactions that was stored in the wallet.",
  "description": [
    "The **listtransactions** command returns transactions tracked in the wallet. This includes deposits, withdrawals and transactions related to channels. A transaction may have multiple types, e.g., a transaction may both be a close and a deposit if it closes the channel and returns funds to the wallet."
  ],
  "categories": [
    "readonly"
  ],
  "request": {
    "required": [],
    "additionalProperties": false,
    "properties": {}
  },
  "response": {
    "required": [
      "transactions"
    ],
    "additionalProperties": false,
    "properties": {
      "transactions": {
        "type": "array",
        "items": {
          "type": "object",
          "additionalProperties": false,
          "required": [
            "hash",
            "rawtx",
            "blockheight",
            "txindex",
            "locktime",
            "version",
            "inputs",
            "outputs"
          ],
          "properties": {
            "hash": {
              "type": "txid",
              "description": [
                "The transaction id."
              ]
            },
            "rawtx": {
              "type": "hex",
              "description": [
                "The raw transaction."
              ]
            },
            "blockheight": {
              "type": "u32",
              "description": [
                "The block height of this tx."
              ]
            },
            "txindex": {
              "type": "u32",
              "description": [
                "The transaction number within the block."
              ]
            },
            "locktime": {
              "type": "u32",
              "description": [
                "The nLocktime for this tx."
              ]
            },
            "version": {
              "type": "u32",
              "description": [
                "The nVersion for this tx."
              ]
            },
            "inputs": {
              "type": "array",
              "description": [
                "Each input, in order."
              ],
              "items": {
                "type": "object",
                "additionalProperties": false,
                "required": [
                  "txid",
                  "index",
                  "sequence"
                ],
                "properties": {
                  "txid": {
                    "type": "txid",
                    "description": [
                      "The transaction id spent."
                    ]
                  },
                  "index": {
                    "type": "u32",
                    "description": [
                      "The output spent."
                    ]
                  },
                  "sequence": {
                    "type": "u32",
                    "description": [
                      "The nSequence value."
                    ]
                  }
                }
              }
            },
            "outputs": {
              "type": "array",
              "description": [
                "Each output, in order."
              ],
              "items": {
                "type": "object",
                "additionalProperties": false,
                "required": [
                  "index",
                  "amount_msat",
                  "scriptPubKey"
                ],
                "properties": {
                  "index": {
                    "type": "u32",
                    "description": [
                      "The 0-based output number."
                    ]
                  },
                  "amount_msat": {
                    "type": "msat",
                    "description": [
                      "The amount of the output."
                    ]
                  },
                  "scriptPubKey": {
                    "type": "hex",
                    "description": [
                      "The scriptPubKey."
                    ]
                  }
                }
              }
            }
          }
        }
      }
    }
  },
  "errors": [
    "On failure, one of the following error codes may be returned:",
    "",
    "- -32602: Error in given parameters."
  ],
  "author": [
    "Vincenzo Palazzo [vincenzo.palazzo@protonmail.com](mailto:vincenzo.palazzo@protonmail.com) wrote the initial version of this man page,",
    "but many others did the hard work of actually implementing this rpc command."
  ],
  "see_also": [
    "lightning-newaddr(7)",
    "lightning-listfunds(7)"
  ],
  "resources": [
    "Main web site: [https://github.com/ElementsProject/lightning](https://github.com/ElementsProject/lightning)"
  ],
  "examples": [
    {
      "request": {
        "id": "example:listtransactions#1",
        "method": "listtransactions",
        "params": {}
      },
      "response": {
        "transactions": [
          {
            "hash": "1c52125b87d99bb413db15a57a356e64a45a2c9e9bf07265ead0ef0a2d2f118c",
            "rawtx": "0200000000010135803af093aa69ff749ecd621879a56ba6cbc8bb935b6ed5bbc227ee2527ccd80000000000ffffffff0176390f0000000000225120169e0f8fd41962da8f275621cc712e75fcc81ec1266235ecaf0e94efbf7d86070400473044022066f41a3413013ccd04ed3e7c1618dbe53748547b4e2eef9cce9f642880bcfa3e022056b0a9eec3552e07192253dd30b64b510c6487095abae985c304d676ffeacb430147304402207f78278da350a06ddc3f1aec0904a33f887de168f00203f21ba81e26a5ce5e6f02205e130bbc4139f8fefbdd975d352970d9aabd98ab580d5f20e3c5ab8003f2dbcd01475221024778e1278c9a70ef064e03285edb8281e95473a8f8900823e5dd9a0f4daa40af2103d02199675ce9e196c5aba59f666819662b0799a35291df2c10060752d623fa6552ae00000000",
            "blockheight": 154,
            "txindex": 4,
            "locktime": 0,
            "version": 2,
            "inputs": [
              {
                "txid": "d8cc2725ee27c2bbd56e5b93bbc8cba66ba5791862cd9e74ff69aa93f03a8035",
                "index": 0,
                "sequence": 4294967295
              }
            ],
            "outputs": [
              {
                "index": 0,
                "amount_msat": 997750000,
                "scriptPubKey": "5120169e0f8fd41962da8f275621cc712e75fcc81ec1266235ecaf0e94efbf7d8607"
              }
            ]
          },
          {
            "hash": "bfe6bc1920cd8cbfdf90351ec72e0da67ffdfb4f0fcf2e2eda6869724254ac4f",
            "rawtx": "02000000000102173eeadd7b48895fc2358106ccc7396d0ec3f51284a1a16d54851a0b3e7d16db0100000000fdffffff83b5542bccdd54073ad2801834c4a7282be73c9882ff668dc54ed67159e702ad0000000000fdffffff04204e000000000000220020c78f7612091014be627511d7759daf13553b15fcda2b8fb4a9d878afb3496c579aedf4050000000022002006addd4c05131a5d7bb40d0ffc74d00e648d908d5765b7498762348042eb66bf307500000000000022002089df8e73118830cb1f909727e62db20c179bc683b1412179416a9c7fd3b0f078a8610000000000002251207df7b21b2b0653344bc7d240d4e70295002696c14150f8fad6e3bd88c0d8520b0247304402207e2482e8a0e56a94cd7988f44b792fe906f479b98ad107163c19bea273c1774e02200539a1398ba617aa6639e3c069dc89f8a6f0ebf7e349107d8ac9cdb2fb8c13f8012102123549c9707591f8c1668a788ad2505dcbb5b216409c216e77a46122588bfa6001402f5e881ff5f0088c6d14cc6234c950a1e159fe0c563a1d03de7c3036bf58137e9b77a7922eb292fc2db9141b90302a966529ef85b8c940807a32fe032477d2267e000000",
            "blockheight": 155,
            "txindex": 1,
            "locktime": 126,
            "version": 2,
            "inputs": [
              {
                "txid": "db167d3e0b1a85546da1a18412f5c30e6d39c7cc068135c25f89487bddea3e17",
                "index": 1,
                "sequence": 4294967293
              },
              {
                "txid": "ad02e75971d64ec58d66ff82983ce72b28a7c4341880d23a0754ddcc2b54b583",
                "index": 0,
                "sequence": 4294967293
              }
            ],
            "outputs": [
              {
                "index": 0,
                "amount_msat": 20000000,
                "scriptPubKey": "0020c78f7612091014be627511d7759daf13553b15fcda2b8fb4a9d878afb3496c57"
              },
              {
                "index": 1,
                "amount_msat": 99937690000,
                "scriptPubKey": "002006addd4c05131a5d7bb40d0ffc74d00e648d908d5765b7498762348042eb66bf"
              },
              {
                "index": 2,
                "amount_msat": 30000000,
                "scriptPubKey": "002089df8e73118830cb1f909727e62db20c179bc683b1412179416a9c7fd3b0f078"
              },
              {
                "index": 3,
                "amount_msat": 25000000,
                "scriptPubKey": "51207df7b21b2b0653344bc7d240d4e70295002696c14150f8fad6e3bd88c0d8520b"
              }
            ]
          },
          {
            "hash": "6980414f4c8ea65c8ab7b99db7f069c845ef882262b3847e15088915d6d4fc70",
            "rawtx": "020000000001014fac5442726968da2e2ecf0f4ffbfd7fa60d2ec71e3590dfbf8ccd2019bce6bf0000000000ffffffff01564500000000000022512084d7e6c7e3e5568e2db8ac7e92ed73a5d73fa765e71c504f144a2015656412ad04004730440220183039fe97d76ff7d10bd9869eafb635601175575333f18292acaff1edaf05fe02200af5d4cda4417de6f3256c75f20299210ee1149b7a1e60d35c617fb7372814fb0147304402200099254a95ce03ba03d2ba34e0dda1f4dcf15c4085a99c1cb0572954430c8c51022039b4d862d6855cf2a83333e685e305e158fb9f467c68bbd3dbb6bb5e658deef30147522103e52cb6f368d39911714975c31f190723d9af971a899045c1c794b07a814d33f32103f377c55b6893fbfc33b9b68e43f5b84441bd5836bdba2893f23f8edafc5c4b8952ae00000000",
            "blockheight": 155,
            "txindex": 4,
            "locktime": 0,
            "version": 2,
            "inputs": [
              {
                "txid": "bfe6bc1920cd8cbfdf90351ec72e0da67ffdfb4f0fcf2e2eda6869724254ac4f",
                "index": 0,
                "sequence": 4294967295
              }
            ],
            "outputs": [
              {
                "index": 0,
                "amount_msat": 17750000,
                "scriptPubKey": "512084d7e6c7e3e5568e2db8ac7e92ed73a5d73fa765e71c504f144a2015656412ad"
              }
            ]
          },
          {
            "hash": "41d37416ab65054daa008dbb6a1ed5811f08443a087e84fb500ea38b469b7603",
            "rawtx": "02000000000101212a88787c1242de48d7636cabcab7ead203e45b46dc1c0157fac0a7804ad5440000000000fdffffff0350c30000000000002200206f1ae7f9f2000e2cdc3e13b2d546e13393b580a037cc5e3ed1e0b21894a1822250c3000000000000220020d08349edf1550657e6802e9c1d4d4a441c85500adb1dd00e14e359387f57b3331742f40500000000225120bcabd0e0e9ba0888baf623ef4065bb6c43f2f54e09d99c38a83935c6b909f2340247304402206490bd6373ca7647a94329899c853f4843252e250effe94bcc2efffc2152d581022077420fa32dc6d018fb9e5b1a109a7e142d7f3e9f8c896807828b988e2827f90601210327ad538f7b2286bb7c453ec265deedd53fdd2b476a60f68276865394e26425f59b000000",
            "blockheight": 156,
            "txindex": 1,
            "locktime": 155,
            "version": 2,
            "inputs": [
              {
                "txid": "44d54a80a7c0fa57011cdc465be403d2eab7caab6c63d748de42127c78882a21",
                "index": 0,
                "sequence": 4294967293
              }
            ],
            "outputs": [
              {
                "index": 0,
                "amount_msat": 50000000,
                "scriptPubKey": "00206f1ae7f9f2000e2cdc3e13b2d546e13393b580a037cc5e3ed1e0b21894a18222"
              },
              {
                "index": 1,
                "amount_msat": 50000000,
                "scriptPubKey": "0020d08349edf1550657e6802e9c1d4d4a441c85500adb1dd00e14e359387f57b333"
              },
              {
                "index": 2,
                "amount_msat": 99893783000,
                "scriptPubKey": "5120bcabd0e0e9ba0888baf623ef4065bb6c43f2f54e09d99c38a83935c6b909f234"
              }
            ]
          },
          {
            "hash": "04bbbecdbbefaecc53066c3e0450933227b39ede158745ee3ef245f9faf211d5",
            "rawtx": "0200000000010103769b468ba30e50fb847e083a44081f81d51e6abb8d00aa4d0565ab1674d3410100000000ffffffff0186ba0000000000002251205c799951f11755d4bac3c587c269917f186fd0f1088371ba4a418f01bc5684e80400473044022077dfc7a657e9e96996775b9fbf96f6e0b1fd68407039b9757ca5be6df269750e022040b49acea4c5cb0d62ad3cc800abb63d663a0c4d79dcfc543381a9750e67eb410147304402206621b22e97bde00b82dee85e782180f3877d276291afa1a07fc97104ad14bb3a02203494af5cc3463e4114b3d0afb6001292914fff8b00fa56d6800abfb08e04baad01475221035338e8701e3ac9929a3ee61b44078916d8ce7399f8917781744a85ee2f2a60342103c969fd51c07f206481fe3c20cacb6cec5eb62904c893cb1da3becce4bfa4403b52ae00000000",
            "blockheight": 156,
            "txindex": 3,
            "locktime": 0,
            "version": 2,
            "inputs": [
              {
                "txid": "41d37416ab65054daa008dbb6a1ed5811f08443a087e84fb500ea38b469b7603",
                "index": 1,
                "sequence": 4294967295
              }
            ],
            "outputs": [
              {
                "index": 0,
                "amount_msat": 47750000,
                "scriptPubKey": "51205c799951f11755d4bac3c587c269917f186fd0f1088371ba4a418f01bc5684e8"
              }
            ]
          }
        ]
      }
    }
  ]
}
