{
  "$schema": "../rpc-schema-draft.json",
  "type": "object",
  "rpc": "listtransactions",
  "title": "Command to get the list of transactions that was stored in the wallet.",
  "description": [
    "The **listtransactions** command returns transactions tracked in the wallet. This includes deposits, withdrawals and transactions related to channels. A transaction may have multiple types, e.g., a transaction may both be a close and a deposit if it closes the channel and returns funds to the wallet."
  ],
  "categories": [
    "readonly"
  ],
  "request": {
    "required": [],
    "additionalProperties": false,
    "properties": {}
  },
  "response": {
    "required": [
      "transactions"
    ],
    "additionalProperties": false,
    "properties": {
      "transactions": {
        "type": "array",
        "items": {
          "type": "object",
          "additionalProperties": false,
          "required": [
            "hash",
            "rawtx",
            "blockheight",
            "txindex",
            "locktime",
            "version",
            "inputs",
            "outputs"
          ],
          "properties": {
            "hash": {
              "type": "txid",
              "description": [
                "The transaction id."
              ]
            },
            "rawtx": {
              "type": "hex",
              "description": [
                "The raw transaction."
              ]
            },
            "blockheight": {
              "type": "u32",
              "description": [
                "The block height of this tx."
              ]
            },
            "txindex": {
              "type": "u32",
              "description": [
                "The transaction number within the block."
              ]
            },
            "locktime": {
              "type": "u32",
              "description": [
                "The nLocktime for this tx."
              ]
            },
            "version": {
              "type": "u32",
              "description": [
                "The nVersion for this tx."
              ]
            },
            "inputs": {
              "type": "array",
              "description": [
                "Each input, in order."
              ],
              "items": {
                "type": "object",
                "additionalProperties": false,
                "required": [
                  "txid",
                  "index",
                  "sequence"
                ],
                "properties": {
                  "txid": {
                    "type": "txid",
                    "description": [
                      "The transaction id spent."
                    ]
                  },
                  "index": {
                    "type": "u32",
                    "description": [
                      "The output spent."
                    ]
                  },
                  "sequence": {
                    "type": "u32",
                    "description": [
                      "The nSequence value."
                    ]
                  }
                }
              }
            },
            "outputs": {
              "type": "array",
              "description": [
                "Each output, in order."
              ],
              "items": {
                "type": "object",
                "additionalProperties": false,
                "required": [
                  "index",
                  "amount_msat",
                  "scriptPubKey"
                ],
                "properties": {
                  "index": {
                    "type": "u32",
                    "description": [
                      "The 0-based output number."
                    ]
                  },
                  "amount_msat": {
                    "type": "msat",
                    "description": [
                      "The amount of the output."
                    ]
                  },
                  "scriptPubKey": {
                    "type": "hex",
                    "description": [
                      "The scriptPubKey."
                    ]
                  }
                }
              }
            }
          }
        }
      }
    }
  },
  "errors": [
    "On failure, one of the following error codes may be returned:",
    "",
    "- -32602: Error in given parameters."
  ],
  "author": [
    "Vincenzo Palazzo [vincenzo.palazzo@protonmail.com](mailto:vincenzo.palazzo@protonmail.com) wrote the initial version of this man page,",
    "but many others did the hard work of actually implementing this rpc command."
  ],
  "see_also": [
    "lightning-newaddr(7)",
    "lightning-listfunds(7)"
  ],
  "resources": [
    "Main web site: [https://github.com/ElementsProject/lightning](https://github.com/ElementsProject/lightning)"
  ],
  "examples": [
    {
      "request": {
        "id": "example:listtransactions#1",
        "method": "listtransactions",
        "params": {}
      },
      "response": {
        "transactions": [
          {
            "hash": "3a39643f49daea0150cb5fb640a61ca297723cd0ac8d29cae771f3702843918a",
            "rawtx": "0200000000010194331861eb522638b5f34883b4c2e18d30e179f7b33e828a51bf5bbd554e39f40000000000ffffffff0176390f0000000000225120169e0f8fd41962da8f275621cc712e75fcc81ec1266235ecaf0e94efbf7d8607040047304402204535b315406be632571b2da9cc133e4a48d6c24cd97da2c46e1733deb7ea4393022032629b4b9ff698ad36de7dce502a678b7ab0efafcf41682c25ddf5496054903a0147304402200214063bd39c5f57fc44f31da14e6d1359870e3ffe59311da0e4eccb00a97ffa022040612906b44ff3170b2c49a51e2cbb568d3763b850a6db40dd3a3f80d0bcf81a01475221024778e1278c9a70ef064e03285edb8281e95473a8f8900823e5dd9a0f4daa40af2103d02199675ce9e196c5aba59f666819662b0799a35291df2c10060752d623fa6552ae00000000",
            "blockheight": 164,
            "txindex": 5,
            "locktime": 0,
            "version": 2,
            "inputs": [
              {
                "txid": "f4394e55bd5bbf518a823eb3f779e1308de1c2b48348f3b5382652eb61183394",
                "index": 0,
                "sequence": 4294967295
              }
            ],
            "outputs": [
              {
                "index": 0,
                "amount_msat": 997750000,
                "scriptPubKey": "5120169e0f8fd41962da8f275621cc712e75fcc81ec1266235ecaf0e94efbf7d8607"
              }
            ]
          },
          {
            "hash": "7eeb916159bcdd09f3eff8411b91c85fed06f6e620d50bb91beaa102aba3ec97",
            "rawtx": "0200000000010214b6b3434f0c37b7f508280af9232bc59cdcb9ef69e53e830cef095800f624cd0100000000fdffffff5834ab154c90a83fbb52bfcc460b048653da5568ba0342a98076f5dd5a0f575e0000000000fdffffff04204e000000000000220020c78f7612091014be627511d7759daf13553b15fcda2b8fb4a9d878afb3496c579aedf4050000000022002006addd4c05131a5d7bb40d0ffc74d00e648d908d5765b7498762348042eb66bf307500000000000022002089df8e73118830cb1f909727e62db20c179bc683b1412179416a9c7fd3b0f078a8610000000000002251207df7b21b2b0653344bc7d240d4e70295002696c14150f8fad6e3bd88c0d8520b01402a63bc0089c5eedecc2a4bdbdd2093815a99141358cd83f7893e8cd6e63680f96f4c1cbe79f35b4e1dda4efb31ec88b5435150958e5c4604c76906d58c20f87902473044022022e30ba9e6196fb6d0d17757e8edc5ea8516fcf4460cbe8a25bd0d583b7e61b802202926ac73a850875861b468d3359f63246ce00b70eefa5767a45b5da718fd4a39012102123549c9707591f8c1668a788ad2505dcbb5b216409c216e77a46122588bfa6088000000",
            "blockheight": 165,
            "txindex": 1,
            "locktime": 136,
            "version": 2,
            "inputs": [
              {
                "txid": "cd24f6005809ef0c833ee569efb9dc9cc52b23f90a2808f5b7370c4f43b3b614",
                "index": 1,
                "sequence": 4294967293
              },
              {
                "txid": "5e570f5addf57680a94203ba6855da5386040b46ccbf52bb3fa8904c15ab3458",
                "index": 0,
                "sequence": 4294967293
              }
            ],
            "outputs": [
              {
                "index": 0,
                "amount_msat": 20000000,
                "scriptPubKey": "0020c78f7612091014be627511d7759daf13553b15fcda2b8fb4a9d878afb3496c57"
              },
              {
                "index": 1,
                "amount_msat": 99937690000,
                "scriptPubKey": "002006addd4c05131a5d7bb40d0ffc74d00e648d908d5765b7498762348042eb66bf"
              },
              {
                "index": 2,
                "amount_msat": 30000000,
                "scriptPubKey": "002089df8e73118830cb1f909727e62db20c179bc683b1412179416a9c7fd3b0f078"
              },
              {
                "index": 3,
                "amount_msat": 25000000,
                "scriptPubKey": "51207df7b21b2b0653344bc7d240d4e70295002696c14150f8fad6e3bd88c0d8520b"
              }
            ]
          },
          {
            "hash": "f4ff7e1d787773c1de2603193230c47e82371fe2390eddc5487cb3390caed357",
            "rawtx": "0200000000010197eca3ab02a1ea1bb90bd520e6f606ed5fc8911b41f8eff309ddbc596191eb7e0000000000ffffffff01564500000000000022512084d7e6c7e3e5568e2db8ac7e92ed73a5d73fa765e71c504f144a2015656412ad040047304402202ec5311c545fe9cb7626bcb88c331da0f87121596fd0e0e0b4cb7162d983c484022046ec73917e1ef5b53b16702bcd609d0ad64fbe321703bd764642599d8e95436a014730440220794375526c1da50a948566587f4880914492b75f127447512b93082098d7eb9102200d78dd4a72d2a9bf2d4e720710ada515186f5a7fe64501e7f373dc5483a84f1d0147522103e52cb6f368d39911714975c31f190723d9af971a899045c1c794b07a814d33f32103f377c55b6893fbfc33b9b68e43f5b84441bd5836bdba2893f23f8edafc5c4b8952ae00000000",
            "blockheight": 165,
            "txindex": 4,
            "locktime": 0,
            "version": 2,
            "inputs": [
              {
                "txid": "7eeb916159bcdd09f3eff8411b91c85fed06f6e620d50bb91beaa102aba3ec97",
                "index": 0,
                "sequence": 4294967295
              }
            ],
            "outputs": [
              {
                "index": 0,
                "amount_msat": 17750000,
                "scriptPubKey": "512084d7e6c7e3e5568e2db8ac7e92ed73a5d73fa765e71c504f144a2015656412ad"
              }
            ]
          },
          {
            "hash": "4ea72c1bf4b82495e070493d25888b04c5cf7260a7dc5fbd9025c7c983935640",
            "rawtx": "020000000001014eceb34b03237c8ad57ad61ab54e38de29817b8b96ed9d4641a357ae83d3f4c10000000000fdffffff0350c30000000000002200206f1ae7f9f2000e2cdc3e13b2d546e13393b580a037cc5e3ed1e0b21894a1822250c3000000000000220020d08349edf1550657e6802e9c1d4d4a441c85500adb1dd00e14e359387f57b3331a47f30500000000225120bcabd0e0e9ba0888baf623ef4065bb6c43f2f54e09d99c38a83935c6b909f23401405f9a85e4b001c18d0fc42223aae7778539ce704221297f4b2ed563f6523826d7f0b238c8be1cec05f661d5e33ee6bf960b84ba3d4c850c8d70b1a0d8e712ff10a5000000",
            "blockheight": 166,
            "txindex": 1,
            "locktime": 165,
            "version": 2,
            "inputs": [
              {
                "txid": "c1f4d383ae57a341469ded968b7b8129de384eb51ad67ad58a7c23034bb3ce4e",
                "index": 0,
                "sequence": 4294967293
              }
            ],
            "outputs": [
              {
                "index": 0,
                "amount_msat": 50000000,
                "scriptPubKey": "00206f1ae7f9f2000e2cdc3e13b2d546e13393b580a037cc5e3ed1e0b21894a18222"
              },
              {
                "index": 1,
                "amount_msat": 50000000,
                "scriptPubKey": "0020d08349edf1550657e6802e9c1d4d4a441c85500adb1dd00e14e359387f57b333"
              },
              {
                "index": 2,
                "amount_msat": 99829530000,
                "scriptPubKey": "5120bcabd0e0e9ba0888baf623ef4065bb6c43f2f54e09d99c38a83935c6b909f234"
              }
            ]
          },
          {
            "hash": "d18b9de62eed23a221ce50d910bdd3d815ae0c4f68525770de0535dd202623bb",
            "rawtx": "0200000000010140569383c9c72590bd5fdca76072cfc5048b88253d4970e09524b8f41b2ca74e0100000000ffffffff0186ba00000000000022512067b91a3e9eb81100bea16ae13bafee739a0b2e953e5348a2700757fc6adee41c040047304402203bac594c59a65959802f04443b09be44aba2a23e23e0cfea9a468441a8aa48a5022005b0176b6bb6e462a214d80f90f00df34b8d2808892c131a8696fbe70f6bb7e901463043022064ee8bebfd94dbd7dec8966346f329a184e16b455e6726280329a5f6bef1d4a3021f3a9944ea80fe1e25851bbf996040fc0834547648afcbdf7e7486c784a6336b01475221035338e8701e3ac9929a3ee61b44078916d8ce7399f8917781744a85ee2f2a60342103c969fd51c07f206481fe3c20cacb6cec5eb62904c893cb1da3becce4bfa4403b52ae00000000",
            "blockheight": 166,
            "txindex": 2,
            "locktime": 0,
            "version": 2,
            "inputs": [
              {
                "txid": "4ea72c1bf4b82495e070493d25888b04c5cf7260a7dc5fbd9025c7c983935640",
                "index": 1,
                "sequence": 4294967295
              }
            ],
            "outputs": [
              {
                "index": 0,
                "amount_msat": 47750000,
                "scriptPubKey": "512067b91a3e9eb81100bea16ae13bafee739a0b2e953e5348a2700757fc6adee41c"
              }
            ]
          }
        ]
      }
    }
  ]
}
